:020000040800F2
:10000000081000207101000807230008711E000875
:100010000723000807230008072300080723000818
:1000200007230008072300087C2500080723000891
:10003000072300082C2500080723000807230008D1
:1000400007230008072300080723000807230008E8
:1000500007230008072300080723000807230008D8
:1000600007230008072300080723000807230008C8
:1000700007230008072300080723000807230008B8
:1000800007230008072300080723000807230008A8
:100090000723000807230008072300080723000898
:1000A0000723000807230008072300080723000888
:1000B0000723000807230008072300080723000878
:1000C0000723000807230008072300080723000868
:1000D0000723000807230008072300080723000858
:1000E0000723000807230008072300080723000848
:1000F0000723000807230008072300080723000838
:100100000723000807230008072300080723000827
:100110000723000807230008072300080723000817
:100120000723000807230008072300080723000807
:1001300007230008072300080723000807230008F7
:1001400007230008072300080723000807230008E7
:1001500007230008072300080723000807230008D7
:1001600007230008072300080723000807230008C7
:1001700008B50D4B83F30A880C4B09A1D1E90001A6
:10018000C3E9000101F046FB01F036FB00F0F0F995
:1001900001F00CFB01F01EFB01F06EFEAFF30080DE
:1001A000A5EDF5FEA5EDF5FE0800002008100020E5
:1001B0000348044B834202D0034B03B118477047F6
:1001C000341000203410002000000000064B0749C6
:1001D000C91A891048BF0131491003D0044B0BB133
:1001E00001481847704700BF341000203410002029
:1001F0000000000010B5064C237843B9FFF7D8FF84
:10020000044B13B10448AFF300800123237010BDE9
:1002100028100020000000002827000808B5054B22
:100220001BB105490548AFF30080BDE80840FFF762
:10023000CDBF00BF000000001010002028270008DC
:1002400070B44FF00065AD6A03462E69864209D846
:100250006C6913449C4205D3034CA34202D870BC82
:1002600001F0ACBD70BC704700000408B0F5362F3B
:1002700070B50E46144619D2C0F5362300F100655C
:10028000934205F5004511D348B94FF000639B6ACE
:10029000074A5969914202D9186900F02FFA22469B
:1002A00031462846BDE8704001F088BD70BD00BFF2
:1002B000008000087FB56FF0006200F17841914244
:1002C000034619D26D460D4A02F110062C461068FD
:1002D0005168083203C4B2422546F7D15A1E04A918
:1002E0000F3311F8014D12F8010F844204D19A42E4
:1002F000F7D1012004B070BD0020FBE718250008ED
:10030000F0B50368044603F16043B3F5C03F9FB006
:1003100031D84FF00067BB6A42681E6996422AD8FE
:100320002E4B9A4227D8456B06F14002AA4252D87A
:100330009D4250D82846FFF7BDFF00284BD02846E5
:1003400001F05EFD80B16B6973B1022B0ED1AB6918
:10035000C4F1040119444FF0FF32204600F018FEAA
:100360001F4BC31A584258411FB0F0BD7F6B38462F
:10037000FFF7A0FF08B90020F6E7A6F150039F425F
:10038000F9D8284603A901F042FD0028F3D0039DC7
:10039000AE42F0D8AC42EED8124B9D42EBD804A846
:1003A00000F0BAFE21462A1B04A801F0C3FE04A8EF
:1003B00001F0C2FE00F0C0FE044600F0DBFE234662
:1003C0000090294605F1200204A800F025FEB0FAAD
:1003D00080F04009C8E70120C6E700BF00000C0814
:1003E000E320BBDE0000040870B54FF0FF3292B08E
:1003F00005460C4600F0CCFD1C4B984232D14FF420
:1004000080621B4B00219A6601A8202201F0C2FFE6
:10041000184B29466846043C009302F03CF82146FC
:10042000684602F038F8684602F03EF801F0FCFF3A
:100430000646B8B940F2022000F00CF920223146FD
:100440000AA801F0A7FF0C4B294609A8099302F05E
:1004500022F809A8214602F01EF809A802F024F8A3
:1004600001F0E2FF002012B070BD00BFE320BBDE50
:100470000090004001000543010006434FF48062F4
:1004800030B50446154B93B09A660021202201A88E
:1004900001F080FF124B21466846009301F0FBFFFC
:1004A000684602F001F801F0BFFF054698B940F236
:1004B000022000F0CFF8202229460AA801F06AFFA6
:1004C000084B09A82146099301F0E5FF09A801F0AE
:1004D000EBFF01F0A9FF002013B030BD00900040F9
:1004E00000000243000003434FF4806210B50F4B3D
:1004F0008CB004469A660021202204A801F04AFF2D
:100500000B4B00940393012301930A4B694603A804
:10051000029301F0E6FF03A801F0C6FF01F084FF9B
:10052000B0FA80F040090CB010BD00BF0090004050
:1005300000000843040000200048704700800008C5
:1005400038B50C46054680B179B100230B60074BE6
:10055000036001F089FE01301EBF2B6843F4C043E5
:100560002B60236843F40023236038BD0C1200087D
:10057000012307B58DF806308DF807304FF0402382
:10058000D3F894305A060FD500F0A2F8A0F202205A
:1005900080B2072808D8C923C340DB0742BF002325
:1005A0008DF806308DF80730154B5B68013308D1A4
:1005B0004FF4027000F04EF800238DF806308DF8ED
:1005C00007309DF807305BB10D48FFF799FE8DF8B5
:1005D00006009DF806301BB94FF4027000F03AF89F
:1005E0009DF806304BB100F027F808B100F01CF878
:1005F0000348044B986001F031FC03B05DF804FB44
:100600000060000800ED00E04CF23C32014B5A80E3
:10061000704700BF000000204AF6C032014B5A80EC
:10062000704700BF000000204FF20F02014B5A80BC
:10063000704700BF000000204AF6C030044B5B88C2
:1006400023F00F039BB21B1A58425841704700BF5A
:1006500000000020044A08B51080FFF7EDFF10B934
:100660004FF20F03538008BD0000002008B5FFF7CC
:10067000E3FF18B1024B588800F00F0008BD00BF1F
:100680000000002008B5FFF7D7FF48B1054A53889E
:1006900003F00F010F2914BF013323F00F03538020
:1006A00008BD00BF0000002008B5FFF7D3FFBFF36F
:1006B0004F8F0549054BCA6802F4E0621343CB60D3
:1006C000BFF34F8F00BFFDE700ED00E00400FA0527
:1006D0004FF20F01084B5A888A4201D1188870479F
:1006E0003AB91B8840F20220012B18BF4FF400706A
:1006F00070474FF400707047000000204FF48032C4
:1007000008B5044B9A6601F001F9B0FA80F040098F
:1007100008BD00BF00900040072BF8B506460F4605
:1007200014461D4601D90020F8BD0121202001F00A
:100730007FF80121212001F07BF88CB144EA060307
:100740009B07F0D14FF48032064B31469A6628461B
:1007500023463A4601F03EF9B0FA80F04009E3E75B
:100760000120E1E700900040134610B562B1034359
:100770009B070BD14FF48034054B9C6601F0EEF8DB
:10078000B0FA80F0400910BD0120FCE70020FAE734
:100790000090004030B5024600230C25054905FBBA
:1007A00003F460180C59944203D001330C2BF6D19A
:1007B000002030BDC4250008F0B50023082787B00D
:1007C000CDE9013315463B46009704AA044601F0E3
:1007D0001FFC41F203039842064623D194F84330AC
:1007E00053B13A46E06C04A901F0A4FC04AA3B46CC
:1007F0001146A06C01F08DFC059A049B6A6094F888
:1008000043202B6052B9094A934207D0084A9342C9
:1008100004D00822E06C04A901F08CFC6B6823650D
:1008200000236365304607B0F0BD00BFF70A0AF742
:10083000FC0404FC2DE9F04799465B6804460F462A
:100840009046002B3FD08B0740D14FF000639B6A4E
:10085000006E1B6981181D1DA9421BD31C339842D1
:1008600018D2A842024638BF2A46994294BFC2EB2A
:10087000010AC2EB030A101A3E18C5F168001044C1
:1008800031465246204401F08DFD5246FF2130464C
:1008900001F080FD226E0F4B9A420BD80E4902EBFD
:1008A0000800884206D39B1AFA58C4F880204FF0FB
:1008B000FF32FA50D9E9003542463946206EA84742
:1008C000236E434423660020BDE8F08741F2020016
:1008D000FAE700BF04800008088000082DE9F04115
:1008E00000254FF0FF3704468846164603F02003E4
:1008F00080F842301822FF21C0E91855A0F8405076
:1009000080F84350A0F8445080F84650C0F88870F2
:10091000683001F03FFD88222946C4E91286C4F8F8
:100920008070C4F8847004F1900001F033FD074B2F
:10093000C4F82071C4E946350123A4F8243116B166
:10094000304600F0E9FB0020BDE8F0810001010124
:100950002DE9F04F9BB09946CDE9072300230446CB
:100960000E464FF00108249D09930999B8E094F8C8
:1009700046300C2B00F2B080062B7BD908FA03F22C
:1009800012F4286F40F0DF8112F4885F40F09E81FE
:100990000A2B40F0A580DFF810B4636D072B00F23E
:1009A0004E814FF0080A38232046CDE90188CDF862
:1009B00000A00CAA07A901F02BFB41F20303984207
:1009C00040F0A780337843F0040333700D9BB3628B
:1009D00073785F071CD50020236DCDF828B0C4F8CC
:1009E000843094F84530606643F0020384F8453063
:1009F000EF686FB104222B680AA9B847606E2B68B4
:100A00005246EF680CA95044B847636E10336366D2
:100A10000B2384F84630C0E7A3F10E02052A00F24A
:100A20003F82DFE812F0AD020600F500EE01EE01B4
:100A3000AB020027636D0F2B00F29A801023204633
:100A40000093CDE9018740230AAA07A901F0E0FA43
:100A500041F2030398425CD1D4F848A000F0A8FB0F
:100A600080230221CDE900030BAA0123504600F0A8
:100A7000A7FADFE7013B052B37D8DFE813F07B004F
:100A8000750006006401D3002F010127636D072B59
:100A900000F2D580082320460093CDE9017740235A
:100AA0000AAA07A901F0B4FA41F20303984230D12F
:100AB000337843F0020333700A9B7360236D083B65
:100AC00073620B9BB3F1006F00F0E080132384F896
:100AD000463041F201001CE0A3F10D02062A9BD929
:100AE0004945FFF444AF002064E020460AAA07A964
:100AF000FFF762FE41F2030398420AD10B9B0A9A68
:100B0000236500236365A64B9A42DFD1022384F854
:100B1000463041F203030590059A9A423FF425AF0F
:100B200047E0082320460093CDE9018740230AAA25
:100B300007A901F06DFA41F203039842E9D10A9B3B
:100B400003F07F43B3F1407F05D0132341F2090046
:100B500084F84630DDE70B9BD80706D594F8423081
:100B600043F0010384F842300027636D072BD8D986
:100B70000123B0E020460AAA07A9FFF71DFE41F2B3
:100B800003039842074609D10A98FFF703FE02467D
:100B900098B9132341F2080784F8463041F2030361
:100BA0000597059A9A423FF4E0AE059B0BB10023EE
:100BB000F37005981BB0BDE8F08F437994F82511C8
:100BC000994205D9132341F20E0784F84630E5E730
:100BD00001687448814205D01189C90748BF0133B3
:100BE00084F8253194F84230D8070DD5118994F84E
:100BF0004330890706D53BB1132341F2010784F83E
:100C00004630CBE7002BF7D0137984F84630C5E7A0
:100C1000226D0123A265002284F84330E26584F846
:100C20004630A2E600213C220BA80A91012701F0E0
:100C3000B1FBD4E91432934204D884F8467041F2EF
:100C4000030066E7009320464023CDE901770AAA16
:100C500007A901F0DDF941F2030398427FF459AF8F
:100C60000DF1280C06F108030DF1400E624603CA8F
:100C7000724518605960944603F10803F6D1106874
:100C80001860337843F001033370D2E7042384F80B
:100C9000463094F8453043F0010384F84530002392
:100CA0006366F3E6042320460093CDE901774023F1
:100CB0000AAA07A901F0ACF941F2030398427FF4B4
:100CC00028AF226D0A9B042A01D923660127636D90
:100CD000032BE7D9092384F84630B0E70023636685
:100CE00007239CE79F423ED89F4228BF1F464023D0
:100CF0002046CDE9018800970AAA07A901F088F9E2
:100D000041F2030398427FF404AF94F846B0BBF17C
:100D1000070F37D0042FC7F1040A88BF4FF0000A2D
:100D20000AAB5246FF21D81901F034FBBBF1090F81
:100D3000BA443BD12B46524620460AA9FFF77AFD1A
:100D400000287FF4E6AED4E914739F427FF610AF1B
:100D5000FF1ADDE908329B1A94F84020032F134450
:100D6000C0D9032B05D8204607A901F030F900208F
:100D7000CFE6402F28BF40279F4228BF1F4627F0BD
:100D80000307B4E7D5F808A0BAF1000FC2D02B686A
:100D90003A46606E0AA9D047636E3B446366D2E769
:100DA000EB17A603F90707F9EB17A65EBBF1040FD3
:100DB0001DD173789807C6D5EB68002BC3D0626E3F
:100DC000042A0BD80AEB0203062B07D90BAB9B1A9C
:100DD0001A68C4F884204FF0FF321A60EF682B685D
:100DE0005246606E0AA9B847636E5344D6E7BBF11A
:100DF0000B0FA8D173785907A5D5EF68002FEED156
:100E0000A1E74FF000618A6A496B1269503A91423A
:100E10003FF65FAE112B0AD194F81831002B7FF406
:100E2000A7AE132341F2060084F8463071E694F829
:100E30004430002B7FF49CAECDE9013340232046A3
:100E400000930AAA07A901F0E3F841F203039842CC
:100E50007FF45FAEE06C01F06FF994F818316BB17C
:100E600004F1B4030093E06C04F1940312AA0AA9FC
:100E700000F0D2F878B10023F370D2E7D4F84CA098
:100E800000F05AF9074600F075F93B46009012AAA7
:100E900050460AA9ECE70123F37084F8443067E672
:100EA00000234FF00408CDE9013320464023CDF85C
:100EB00000800AAA07A901F0ABF841F203039842A7
:100EC00009D1D4F88820304B9A4206D0132341F23E
:100ED000050084F8463005906BE60123F37094F822
:100EE0004530DA0707D5EF682FB1424640462B68F8
:100EF00004F18401B84794F845309B0707D5EF68A3
:100F00002FB104222B68104604F18401B847236EE8
:100F10006BB36F685FB34FF0FF3304F180080422B6
:100F2000414606A8069301F025FA20B10422414665
:100F30002B681648B84704F168090422494606A8F8
:100F400001F018FA98B14FF000639B6A1422D3F8AD
:100F5000108004F16C0108F10800D5E90037B847AA
:100F6000D5E900370422494608EB0200B8470123BF
:100F7000B3700E23002084F84630ACE70023F370F2
:100F800041F2070016E600BFE320BBDE0480000844
:100F900030B50824094B00255C66012403F5FE23C7
:100FA0005C6001449D601A61DC60884201D1586A2E
:100FB00030BD10F8012B1A62F7E700BF0090004027
:100FC0002DE9F04116464FF480621D46114B00F1A9
:100FD000200804469A6640460F4601F0A2F9DDE972
:100FE0000612404601F0A1F9002384F858706364AA
:100FF0003368C4F859307368C4F85D30B368C4F816
:1010000061302B0C6DBA84F86530A4F86650BDE8E9
:10101000F08100BF009000402DE9F04315464FF4E9
:1010200080621C46364B9BB0DDF888900E46074622
:101030009A66002861D000295FD0002D5DD0002C79
:1010400058D0304B304AB9F1000F14BF9846904643
:101050002022002112A801F09DF92C4B414611A835
:10106000119301F018FA202111A801F014FA0122BD
:10107000274B029403920493CDF8149006920793A1
:1010800054B1B9F1000F07D002A911A801F068F915
:1010900005A911A801F064F9089701271C4C08A9BB
:1010A00011A809970A9401F05BF90BA911A80B96F6
:1010B0000C970D940E950F97109401F051F90EA90D
:1010C00011A801F04DF911A801F0EEF9114B0193AF
:1010D0004FF098435A6CD202FCD55B6D40F204602D
:1010E00003F470230193019B002B08BF00201BB069
:1010F000BDE8F083DFF81080AAE740F20160F6E770
:10110000009000401F2400801F24FC840000010682
:1011100020000020785634124FF4806210B5044647
:10112000044B9A6601F00BF82046BDE81040002100
:1011300001F009B8009000404FF4806200B50B4BFD
:101140009BB09A6600212822684601F023F94023CB
:10115000002168460AAA00F005FE20F010000128D0
:10116000034818BF00201BB05DF804FB009000404E
:101170004CE30B084FF4806200B50B4B9BB09A66B2
:1011800000212822684601F005F940230021684625
:101190000AAA00F0E7FD20F010000128034818BF5C
:1011A00000201BB05DF804FB009000406CE30B08CE
:1011B0000048704786E20B082DE9F3471446DDE945
:1011C0000A920D461F4600284DD14CB313683F2BA1
:1011D0002AD8516851B32549002F14BFB846884614
:1011E00003F03F061B19136022BF5368013353609D
:1011F000FEB93F2C0ED9A3092A46009341463B462F
:10120000002000F083F824F03F031D4404F03F0465
:1012100034B100262246294609EB060001F0C2F847
:10122000002002B0BDE8F087B846D9E7DFF83C807F
:10123000D6E7C6F1400A5445ECD32946524609EB9D
:10124000060001F0AFF80123264400934A463B46CE
:1012500041460020A6F1400400F058F83F2C5544C8
:10126000D6D9B846C7E70248DBE700BF9426000896
:1012700080AFFFFF2DE9F0411746146886B01E4687
:10128000E3008DF80F3063098DF80E30630B8DF895
:101290000D30630D8DF80C3053680546DA0002EB13
:1012A00054728DF80B2004F03F045A09372C8DF846
:1012B0000A204FEA53324FEA53538DF809208846EB
:1012C00094BFC4F13802C4F17802CDE900178DF85B
:1012D00008300D4903460020FFF76EFF08222B4619
:1012E0000020CDE900870DEB0201FFF765FF2846DE
:1012F00005F1200350F8042B984246F8042BF9D14D
:10130000002006B0BDE8F08154260008F0B517466D
:101310004FF480621D46264B93B09A6624220E46F7
:10132000044600210DEB020001F034F801204FF0DB
:101330000052009701900292039604900592069540
:1013400007900892002C2FD1189C1A4BA40121461B
:1013500009A8099301F09FF8029B03A91C4302947A
:10136000059B09A843F020030593089B43F0200345
:10137000089300F0F5FF694609A800F0F1FF06A9FF
:1013800009A801F0AEF809A801F08EF84FF09843D3
:101390005A6CD202FCD55B6D13F4702F14BF6FF042
:1013A0006F00002013B0F0BD6FF07100FAE700BFCE
:1013B000009000400004010310B5ADF50E7D4FF420
:1013C0000E726946002000F020FF40F20124002147
:1013D000684600F0F1FEA042F9D040F203239842A3
:1013E00004D040F205400DF50E7D10BD9DF8003093
:1013F00059070ED49DF800309A071AD4DB07F0D5B0
:10140000002203998A9800F079F90028E9D0002099
:10141000E9E70A9800F00EFD0028EBD08A9800F06A
:101420002BF90028E6D00B48FFF728F80028E1D177
:10143000D7E74FF00062926A019992689142DDD934
:101440008A9800F037F90028CBD009990148FEF7B7
:10145000CBFFC6E70080000831B10A4B5A688242D0
:1014600005D80023C1E9003340F201407047013044
:1014700053F8302003EBC0035B6800200A604B6028
:10148000704700BF1827000870B40C4611461A4672
:101490000D4B5D68854210D9013003EBC0056D68C6
:1014A000A618AE420DD8A5420BD3954209D353F8E6
:1014B0003000204470BC00F0D9BE40F2014070BC46
:1014C000704740F20240FAE71827000830B5CA68B2
:1014D0001B4B04469A420D46A3B019D1FFF72CF8D6
:1014E000D4F82832174A013352F83330D4F8302276
:1014F0001344984208D38033984209D241F20D0335
:10150000C4F8343223B030BD00F5C0309842F5D86D
:101510008023D4F8301202AAD4F82802FFF7B4FFCF
:1015200080232146009502AA04F12C00FFF710FA4F
:10153000D4F83032C4F834028033C4F83032E1E7F2
:101540006D0200081827000870B50D46002186B00E
:101550000DF1070302931C4B044616461160284602
:101560001C22CDE903338DF80710059300F012FF1C
:101570009DF8072032B9D4F834321BB9D4E98B3145
:10158000994219D32378990744BF61683160DB071A
:1015900009D504F1080304F1240153F8040B8B422C
:1015A00045F8040BF9D162B9237840F20640002BCC
:1015B00018BF002006B070BD204602A9FFF786FFC5
:1015C000D6E70020F6E700BFB321000870B40C4650
:1015D00011461A460D4B5D68854210D9013003EB68
:1015E000C0056D68A618AE420DD8A5420BD3954232
:1015F00009D353F83000204470BC00F047BE40F2DD
:10160000014070BC704740F20240FAE7182700081A
:10161000074B5A68824207D9013003EBC002516878
:1016200053F8300000F04FBE40F20140704700BF59
:101630001827000870B5054688B0C0B14FF4403295
:1016400000236C46C0E900230A4B05F114061A7802
:101650005B680272C360684600F06EF80FCC0FC67C
:1016600094E80F0086E80F0005F114032B6108B021
:1016700070BD00BF1827000800B5ADF5137D4FF40D
:101680000E7204A900F0C1FD78B904238DF8113061
:10169000074BCDE900000290694604A8039300F0CF
:1016A000C8FD0DF5137D5DF804FB0020F9E700BFD0
:1016B0006D0200084FF0006300B59B6AADF5137D25
:1016C0009B688B4204D300200DF5137D5DF804FB6D
:1016D0004FF40E7204A900F098FD0028F3D1022304
:1016E0008DF81130044BCDE900000290694604A842
:1016F000039300F09EFDE7E76D02000810B5ADF51D
:10170000127D04AC4FF40E72214600F07EFD70B9DC
:1017100001238DF81130074B0390CDE90130694664
:101720002046009400F085FD0DF5127D10BD0020CF
:10173000FAE700BF4102000870B504460646044DB2
:101740000FCD0FC495E80F0084E80F00304670BD40
:10175000F82600084FF48032014B00209A6670474B
:1017600000900040024BD86900F00100704700BFB4
:10177000000003404FF48032014B00209A6670470E
:1017800000A00040B1F5402F0BD800F17843B3F52D
:10179000402F06D8044B084498428CBF00200120FB
:1017A00070470020704700BF00000C08064B074838
:1017B000DA1C121AC11E22F00302994288BF0022CD
:1017C000034900F0EFBD00BF341000202C100020B2
:1017D00034270008064B0748DA1C121AC11E22F0F3
:1017E0000302994288BF0022002100F0D3BD00BF50
:1017F0002C100020101000200348044A0449121A3B
:10180000921000F081BD00BF700100087001000857
:101810002C100020044B054A9A60D3F8882042F42B
:101820007002C3F88820704700ED00E00000000857
:10183000430905D0012B0CD0022B084B18BF002305
:1018400000F01F0039B103F58053012282401A6075
:101850007047034BF4E703F50053F6E76880004058
:1018600064800040F0B5114A114C124E00F00105A1
:10187000E3695F0713D40DB9334213D103EA0007BC
:101880008F4207D10B4A1A40002A0CBF00206FF08C
:101890000100F0BD013AEBD16FF00200F9E74FF023
:1018A000FF30F6E76FF00100F3E700BF8096980085
:1018B000000003400200010070B5134C6061E36951
:1018C0005B071ED40E4656F8043B8D18A361AE424A
:1018D0000BD10423002121202361FFF7C3FF58B956
:1018E000BDE870402120FFF7BDBF08210846FFF783
:1018F000B9FF10B10423236170BD56F8043BA36106
:10190000E5E74FF0FF30F7E7000003404FF4803287
:1019100038B50E4B0E4C9A66E56941F671331540A9
:101920000122E3630B4B0021DA6002236061212076
:101930002361FFF797FF10B92120FFF793FF0122E2
:10194000054BDA600DB10023E36338BD0090004021
:101950000000034000100340002003402DE9F8433D
:1019600015464FF48032184B89469A6603F51C33AE
:10197000DF690646174041F67132DA63012203F54A
:101980008053DFF84C80DA6055B9284601220F4BAE
:10199000DA601FB10022A3F50053DA63BDE8F883D3
:1019A00006F5005404EA0804A41BAC4228BF2C46E8
:1019B000494622463046FFF77FFF0028E6D12644FD
:1019C000A1442D1BE0E700BF009000400020034031
:1019D00000E0FFFF2DE9F04F01264FF43025840091
:1019E000DFF8C4C004F1402404F58024CCF804607E
:1019F0006560302500244FF48037DFF8B0E0DFF871
:101A0000B09005FB00E5EC652C662C67214CDFF8F7
:101A1000A4A0A76641F671341F4F06FA00F0D7F86C
:101A20001C80FC631D4CE66043B901211C4A18F47C
:101A3000803FD16029D10020BDE8F08F01F500542E
:101A400004EA0904641A9C4228BF1C467961D7F84D
:101A50001CB0A6081BF0040F19D1013E360146F058
:101A600060566E66AA66C5F86CA0CCF82400DEF855
:101A700034603042FBD00B4E214470630426CCF816
:101A8000280022443E611B1BCEE7FB63D3E74FF0E7
:101A9000FF30D1E7009000400000034000100340F9
:101AA00000200340002004400010044000000440D7
:101AB00000E0FFFF180003402DE9F043012905462F
:101AC0000E46914698469DB05BD8046824F04003CA
:101AD000802B02D0B4F5807F56D12022002114A89B
:101AE00000F058FC2B4A2C4BE408012E08BF13468B
:101AF00013932B1D0A93012344F000540B930C9471
:101B0000264C01AF0AAA07CA04AE87E80700CDF841
:101B100034900DAA0E930F9407CA86E80700CDF8FB
:101B20004080119310AB129407AC93E8070084E84F
:101B30000700394613A800F013FC314613A800F043
:101B40000FFC214613A800F0CCFC296813A8C90893
:101B500000F0A1FC102113A800F09DFC00F030FC67
:101B6000A8B913A800F0A0FC4FF098435A6CD20219
:101B7000FCD55C6D00F02EFC04F470201DB0BDE8B7
:101B8000F0836FF02000F9E76FF07100F6E74FF097
:101B9000FF30F3E700010004000101041000002001
:101BA0002DE9F04F07468B4698461646A9B082B1FC
:101BB00015683B6823F04002802A03D0B3F5807F8C
:101BC00040F0C98000245C4505D306B13560002093
:101BD0009EE01546EDE75DB1339B329A1B5D525D89
:101BE00001355340349A05F00F0513550134EAE7E7
:101BF000ABEB0409B9F10F0F0CD8339B03EB0409CD
:101C0000349B1C44339B03EB0B0AD14540F083808B
:101C10005C46D8E72022294620A800F0BBFB4F4BAA
:101C20003A681F933B1D10930123D20842F00052E3
:101C300011930DF1040C129210AA07CA8CE8070048
:101C4000474ACDF84C800DF1100E1493159213AA4B
:101C500007CA8EE80700424ACDF858800DF11C0EE5
:101C60001793189216AA07CA8EE80700339A29F02C
:101C70000F09224449F0005E19920DF1280A19AAB1
:101C80001A93CDF86CE007CA8AE80700349A224418
:101C90001C921D931CAACDF878E00DAB07CA83E80F
:101CA000070061461FA800F05BFB04A91FA800F015
:101CB00057FB51461FA800F053FB0DAB19461FA858
:101CC00000F00FFC07A91FA800F00BFC39681FA843
:101CD000C90800F0E0FB49461FA800F0DCFB00F05B
:101CE0006FFB98B91FA800F0DFFB4FF098435A6CC8
:101CF000D202FCD5586D4C4400F4702A00F06AFB07
:101D0000BAF1000F3FF479AF504601E04FF0FF30D9
:101D100029B0BDE8F08F55B1329A19F8013B525DF8
:101D20000135534004F8013B05F00F056DE74246CD
:101D300001213846329BFFF7BFFE0028E8D108F1A9
:101D4000100212F8013D0133DBB21370002BE3D116
:101D50009045F6D1E0E76FF01F00D9E703030004D8
:101D6000100000201FB5044608B302B3402B1ED15B
:101D700093071CD1C1B1012919D14FF400710D4B4A
:101D800001920B4323600023C4E901332362012342
:101D90000293094B204601A9039300F0A2FB2046C1
:101DA00000F020FB04B010BD4FF48071E7E7212064
:101DB000F8E700BF010008FF40000020C0F30C035B
:101DC0002DE9F04105460F4616460BB9FEF796FC85
:101DD00005F5005424F4FF5424F01F0405EB060815
:101DE000A04507D8324639462846BDE8F0410223CF
:101DF000FEF792BC2046FEF781FC04F50054EFE7A5
:101E0000036913F0FE0F0CBF01200020704738B5A6
:101E100004460D46FEF74EFA38B16369012B07D12F
:101E20002046FFF7EDFF10B1A46901202C6038BDFA
:101E30000020FCE74FF0FF3313B5044601A80193DF
:101E4000FEF752FB20B1019BA3422CBF00200120D2
:101E500002B010BDFFF77EBCFFF78CBC03461846EE
:101E6000016881F3088881F3098840688746FEE7A6
:101E70004FF40170FEF718BC4FF04023D3F88420D4
:101E800010B5110606D44FF400621A67D3F8842007
:101E9000D206FBD4FFF7DEFFFEF7CEFB08B9FEF754
:101EA000B3FB00F084F9044658B9FEF7C5FB08B14E
:101EB000FEF7BAFB40F20120FEF7F6FB4FF401708B
:101EC00013E0FEF7B9FB08B9FEF7A6FBFEF7CEFB61
:101ED000012802D9FEF798FBFEE7FEF7D3FB40F29C
:101EE00005439C42EAD140F20320FEF7DDFB0020CF
:101EF00010BDB1F50E7F10B504460FD34FF40E722E
:101F0000002100F047FA04F5E07204F5AC7104F129
:101F10002C000023BDE81040FEF7E0BC40F2052095
:101F200010BD13B50446009101462C30FEF710FD9C
:101F3000C4F8340218B141F20703984204D1A378DF
:101F400023B1E07800F2022002B010BD40F201207F
:101F5000FAE72DE9F04387B00DF1080904460E4673
:101F600017460021102248461D46DDF8388000F053
:101F700011FA00211C22C8F80010284600F00AFAC5
:101F800032463B462146CDF8009004F12C00FEF786
:101F9000DFFC23789A0744BF6268C8F80020DB079B
:101FA00009D504F1080304F1240253F8041B9342F9
:101FB00045F8041BF9D1237840F20640002B18BFE6
:101FC000002007B0BDE8F0834FF40E70704770B585
:101FD000D1E90152AA4205D290F840302B449B1A15
:101FE000402B10D9002012E00A6890F84040D65CDF
:101FF00090F841200133224402F03F02013486541C
:102000008B6080F840408B689D42EDD8012070BD08
:102010002DE9F84390F840C017469E46D1E90123C8
:10202000089DD21A6244954204460E469DF82490BB
:102030009DF828800AD9FFF7CAFF002867D113232B
:1020400041F2020084F84630BDE8F883754555D862
:10205000002394F840200AB19D4235D1D6E90121F0
:10206000914201D29D4241D89D424DD129463846E8
:10207000D4F88820FEF78CFFC4F88800B9F1000F6F
:1020800004D02A463946E06C00F054F894F8433006
:10209000B8F1000F06D08BB12B463A463946A06CFA
:1020A00000F037F894F8433043B1E36DA26D2B4450
:1020B0009342E36524BF002384F84330636D41F20B
:1020C00003002B446365BFE794F84120A25CFA54F7
:1020D00094F841200133013202F03F0284F841209C
:1020E00094F84020013A84F84020B2E73268525C0C
:1020F000FA54B26801330132B260AFE741F2010035
:10210000132384F846309FE741F20200F8E70020ED
:102110009AE71FB50C46194600F14803CDE9014284
:10212000009300F1440200F158032030FFF738FD1E
:1021300004B010BD00F00CB8014600F016B86822DB
:10214000002100F027B903460020C3E900007047D2
:1021500007B500F128030190009300F10803002067
:10216000FFF72AF803B05DF804FB02460B4600F1C6
:1021700028010830FFF77EB810B500244A1EA1429E
:102180004FEA82024FF0FF0108BF224640F8044B9D
:1021900000F000F9204610BD036840F204500133FE
:1021A000012B98BF0020704740F202507047FFF7A4
:1021B00003B901221A7070471FB50023CDE900331F
:1021C000CDE90213D0F83432044693B9D0E98B320A
:1021D0009A420ED26946FFF779F9D4F8340270B109
:1021E00041F2070240F20123904208BF184604B0B2
:1021F00010BDA37833B1E07800F20220F7E740F297
:102200000120F4E740F20220F1E737B50C4605461D
:1022100011462046FFF76DFE48B969462846FFF78C
:102220001BF920B9019BC4F82852C4F82C3203B022
:1022300030BD38B500F5E07204460D46202300F5A8
:10224000AC712C30FEF74AFBD4F834321BB9D4E918
:102250008B329A4203D3A07800B1E07838BD29468A
:102260002046FFF733F9EFE70220704738B50C46F8
:1022700011460546FFF786FA28B12946204600F0A8
:1022800091F8002038BD40F20240FBE738B50D461A
:1022900011460446FFF776FA80B940F2024038BD95
:1022A000E15801310CD104339A42F9D8294620462D
:1022B000FEF75AFA0028F0D00020F0E70023F3E7F9
:1022C00040F20340EBE738B541EA0003C3F30C03E7
:1022D00004460D46A3B9FFF755FA10B940F2024083
:1022E00038BD2544204604F50054FEF707FAA54200
:1022F00002D00028F6D1F1E70028EFD00020EFE768
:1023000040F20440ECE7FEE700239A4200D1704718
:1023100010B550F8234041F8234001339A42F8D1D8
:1023200010BD2422002100F035B870B515460E46C8
:1023300024220021044600F02DF825F04003802BD4
:1023400002D0B5F5807F08D12046314640F8045BC5
:10235000EA0800F027F8002070BD6FF01F00FBE7CF
:10236000436813B9416070475B685A68012AFBD122
:10237000596070470139024410B5904201D10020E4
:1023800005E0037811F8014FA34201D0181B10BDDE
:102390000130F2E702440346934200D1704703F84C
:1023A000011BF9E70A44431E914200D1704710B562
:1023B00011F8014B914203F8014FF9D110BD000013
:1023C0004FF48062024B9A66BFF34F8F0020704734
:1023D000009000404FF48062014B00209A667047E5
:1023E00000A0004008B5C0B14FF480620C4B9A6663
:1023F000BFF34F8F00F058F84FF098435A6CD20259
:10240000FCD54FF48062586D064B10F470209A662C
:1024100004D0BDE8084000F010B8212008BD00BF7E
:102420000090004000A000404FF098435A6CD20248
:10243000FCD5586D00F470207047B0F5802F22D085
:1024400010D8B0F5003F20D007D818B3B0F5803FC2
:1024500008BF482018BF01207047B0F5403F08BFB3
:102460002C20F7E7B0F5302F11D007D8B0F5E02FCA
:102470000FD0B0F5202F08BF1020EBE7B0F57F0F8D
:1024800008BF0620E6E74B2070472A20704711203E
:10249000704721207047036A042B9FBF00EB830223
:1024A0000133D16003627047036A052B14D84FF0E3
:1024B0009842116CC902FCD504339B001365016876
:1024C000103B11604168116050F8081F11604FF017
:1024D00098420344984200D1704750F8041F11609D
:1024E000F8E7836813B9816070475B685A68012A0E
:1024F000FBD15960704700000000000000000000A0
:10250000F8B500BFF8BC08BC9E467047F8B500BFE0
:10251000F8BC08BC9E467047B814B6F1E0CFF3ADE6
:10252000B7DD25C9FA79B7130000000013B779FAAF
:10253000C925DDB7ADF3CFE0F1B614B80102000054
:10254000000000003C2700004000000001000203E2
:10255000000000000000000000000000000000007B
:10256000000000000000000000000000000000006B
:1025700000000000000000000000000007B0CD5E79
:102580000200000001000203402700000060000874
:1025900000000C08F0040100551E0008591E000838
:1025A00001030008F31E0008231F0008B4260008DA
:1025B000531F0008C91F0008000000004105000863
:1025C00039050008EB17A603020100000300000014
:1025D000FA0606FA0F04000003000000F40A0AF4E9
:1025E0000505000001000000EB17A65E0A060000CA
:1025F00001000000F50909F50307000001000000D3
:10260000F60808F60608000000000000FE0101FEC2
:102610000808000000000000FD0303FD0C08000096
:1026200000000000F90707F910090000020000008F
:10263000F30B0BF3110A000003000000F70A0AF77E
:10264000120B000003000000FC0404FC0D0C000051
:1026500003000000800000000000000000000000F7
:10266000000000000000000000000000000000006A
:10267000000000000000000000000000000000005A
:10268000000000000000000000000000000000004A
:10269000000000006A09E667BB67AE853C6EF37216
:1026A000A54FF53A510E527F9B05688C1F83D9AB1D
:1026B0005BE0CD1900010000351600085914000830
:1026C00089140008CD15000811160008992100088A
:1026D00079210008A92100080B220008B92100086F
:1026E00049150008651700086D2200088D220008B2
:1026F000C722000869220008100203002800000019
:10270000280000000020000000000C000000000075
:102710000400000000000040010000000100000073
:082720000000040800000400A1
:0C272800342700082C10002002000000E4
:082734001D020008F501000878
:04000005080001717D
:00000001FF
